{
  "transactions": [
    {
      "hash": "0x90498dbd224ce321498ae819ac984f2e39485113174e979e64c6b730935959a4",
      "transactionType": "CALL",
      "contractName": null,
      "contractAddress": "0x03efecd0a281b209af3d9602f2f1c3d4ba1080a6",
      "function": "delegate(address)",
      "arguments": [
        "0x92188D4D8814886Ff08E1199d125E1995F432f1e"
      ],
      "transaction": {
        "from": "0x3a5525d06aee6da10b384218c7f02006f53a1501",
        "to": "0x03efecd0a281b209af3d9602f2f1c3d4ba1080a6",
        "gas": "0x27bec",
        "value": "0x0",
        "input": "0x5c19a95c00000000000000000000000092188d4d8814886ff08e1199d125e1995f432f1e",
        "nonce": "0x37",
        "chainId": "0xaa36a7"
      },
      "additionalContracts": [],
      "isFixedGasLimit": false
    }
  ],
  "receipts": [
    {
      "status": "0x1",
      "cumulativeGasUsed": "0x9d7b1c",
      "logs": [
        {
          "address": "0x03efecd0a281b209af3d9602f2f1c3d4ba1080a6",
          "topics": [
            "0x3134e8a2e6d97e929a7e54011ea5485d7d196dd5f0ba4d4ef95803e8e3fc257f",
            "0x0000000000000000000000003a5525d06aee6da10b384218c7f02006f53a1501",
            "0x000000000000000000000000eead1c9a07cbdcb51d6c658672a9bcc3c742a47d",
            "0x00000000000000000000000092188d4d8814886ff08e1199d125e1995f432f1e"
          ],
          "data": "0x",
          "blockHash": "0xeac6cfc7aa32c7990a37af21eadd5d21b6b714670e47cfad1bbf4e9f69f3baae",
          "blockNumber": "0x8e4327",
          "blockTimestamp": "0x68ddca1c",
          "transactionHash": "0x90498dbd224ce321498ae819ac984f2e39485113174e979e64c6b730935959a4",
          "transactionIndex": "0x54",
          "logIndex": "0xa9",
          "removed": false
        },
        {
          "address": "0x03efecd0a281b209af3d9602f2f1c3d4ba1080a6",
          "topics": [
            "0xdec2bacdd2f05b59de34da9b523dff8be42e5e38e818c82fdb0bae774387a724",
            "0x000000000000000000000000eead1c9a07cbdcb51d6c658672a9bcc3c742a47d"
          ],
          "data": "0x00000000000000000000000000000000000000000000d3c21bcecceda10000000000000000000000000000000000000000000000000000000000000000000000",
          "blockHash": "0xeac6cfc7aa32c7990a37af21eadd5d21b6b714670e47cfad1bbf4e9f69f3baae",
          "blockNumber": "0x8e4327",
          "blockTimestamp": "0x68ddca1c",
          "transactionHash": "0x90498dbd224ce321498ae819ac984f2e39485113174e979e64c6b730935959a4",
          "transactionIndex": "0x54",
          "logIndex": "0xaa",
          "removed": false
        },
        {
          "address": "0x03efecd0a281b209af3d9602f2f1c3d4ba1080a6",
          "topics": [
            "0xdec2bacdd2f05b59de34da9b523dff8be42e5e38e818c82fdb0bae774387a724",
            "0x00000000000000000000000092188d4d8814886ff08e1199d125e1995f432f1e"
          ],
          "data": "0x000000000000000000000000000000000000000000000000000000000000000000000000000000000000000000000000000000000000d3c21bcecceda1000000",
          "blockHash": "0xeac6cfc7aa32c7990a37af21eadd5d21b6b714670e47cfad1bbf4e9f69f3baae",
          "blockNumber": "0x8e4327",
          "blockTimestamp": "0x68ddca1c",
          "transactionHash": "0x90498dbd224ce321498ae819ac984f2e39485113174e979e64c6b730935959a4",
          "transactionIndex": "0x54",
          "logIndex": "0xab",
          "removed": false
        }
      ],
      "logsBloom": "0x00000000000000000000000000000000000020000000000000000000000000000000000000000200000010000000004000020000000000000000000000000000000000000000000000000000800000000000000000000000000000000000000000000100080000000040040000000000000000000000000000000000010000000000000000000800000000000000000000000000000000000000000000000000040000100000000000000000000000000000000000000000000000000000000000000000000000000000000000080000000000000000000000000000000000000000000000000000000000120000000000000000000000000040000000000000",
      "type": "0x2",
      "transactionHash": "0x90498dbd224ce321498ae819ac984f2e39485113174e979e64c6b730935959a4",
      "transactionIndex": "0x54",
      "blockHash": "0xeac6cfc7aa32c7990a37af21eadd5d21b6b714670e47cfad1bbf4e9f69f3baae",
      "blockNumber": "0x8e4327",
      "gasUsed": "0x1b2d2",
      "effectiveGasPrice": "0xf425e",
      "from": "0x3a5525d06aee6da10b384218c7f02006f53a1501",
      "to": "0x03efecd0a281b209af3d9602f2f1c3d4ba1080a6",
      "contractAddress": null
    }
  ],
  "libraries": [],
  "pending": [],
  "returns": {},
  "timestamp": 1759365661958,
  "chain": 11155111,
  "commit": null
}