{
  "transactions": [
    {
      "hash": "0x67877214348de5c799620db4400410067d2e5a64ad4c1cfdf9eba775a0b0f653",
      "transactionType": "CALL",
      "contractName": null,
      "contractAddress": "0x03efecd0a281b209af3d9602f2f1c3d4ba1080a6",
      "function": "delegate(address)",
      "arguments": [
        "0x1362Be80C17ff6d403d484503593E32DAe3eE433"
      ],
      "transaction": {
        "from": "0x3a5525d06aee6da10b384218c7f02006f53a1501",
        "to": "0x03efecd0a281b209af3d9602f2f1c3d4ba1080a6",
        "gas": "0x22287",
        "value": "0x0",
        "input": "0x5c19a95c0000000000000000000000001362be80c17ff6d403d484503593e32dae3ee433",
        "nonce": "0x35",
        "chainId": "0xaa36a7"
      },
      "additionalContracts": [],
      "isFixedGasLimit": false
    }
  ],
  "receipts": [
    {
      "status": "0x1",
      "cumulativeGasUsed": "0xb45703",
      "logs": [
        {
          "address": "0x03efecd0a281b209af3d9602f2f1c3d4ba1080a6",
          "topics": [
            "0x3134e8a2e6d97e929a7e54011ea5485d7d196dd5f0ba4d4ef95803e8e3fc257f",
            "0x0000000000000000000000003a5525d06aee6da10b384218c7f02006f53a1501",
            "0x0000000000000000000000000000000000000000000000000000000000000000",
            "0x0000000000000000000000001362be80c17ff6d403d484503593e32dae3ee433"
          ],
          "data": "0x",
          "blockHash": "0x33721ea64a7969dde5d99b8b30162c87943c5d64926e719c2e62bf2e451d9c17",
          "blockNumber": "0x8e4320",
          "blockTimestamp": "0x68ddc9c8",
          "transactionHash": "0x67877214348de5c799620db4400410067d2e5a64ad4c1cfdf9eba775a0b0f653",
          "transactionIndex": "0x6e",
          "logIndex": "0xa6",
          "removed": false
        },
        {
          "address": "0x03efecd0a281b209af3d9602f2f1c3d4ba1080a6",
          "topics": [
            "0xdec2bacdd2f05b59de34da9b523dff8be42e5e38e818c82fdb0bae774387a724",
            "0x0000000000000000000000001362be80c17ff6d403d484503593e32dae3ee433"
          ],
          "data": "0x000000000000000000000000000000000000000000000000000000000000000000000000000000000000000000000000000000000000d3c21bcecceda1000000",
          "blockHash": "0x33721ea64a7969dde5d99b8b30162c87943c5d64926e719c2e62bf2e451d9c17",
          "blockNumber": "0x8e4320",
          "blockTimestamp": "0x68ddc9c8",
          "transactionHash": "0x67877214348de5c799620db4400410067d2e5a64ad4c1cfdf9eba775a0b0f653",
          "transactionIndex": "0x6e",
          "logIndex": "0xa7",
          "removed": false
        }
      ],
      "logsBloom": "0x000000000000000000000000000000000000200000000000000000000000000000000000000002000000100000000040000200000000000000000000000000000000000000000000000000000000000000000000000000000000000000000000000000000a0000000040040000000800000000000000000000000000010000000000000000000000000000000000000000000000000000000000000000000000040000000000000000000000000000000000200000000000000000000000000000000000000000000000000000000000000000000000000000000000000020000000000000000000000000020000000000000000100000000040000000000000",
      "type": "0x2",
      "transactionHash": "0x67877214348de5c799620db4400410067d2e5a64ad4c1cfdf9eba775a0b0f653",
      "transactionIndex": "0x6e",
      "blockHash": "0x33721ea64a7969dde5d99b8b30162c87943c5d64926e719c2e62bf2e451d9c17",
      "blockNumber": "0x8e4320",
      "gasUsed": "0x175b2",
      "effectiveGasPrice": "0xf425b",
      "from": "0x3a5525d06aee6da10b384218c7f02006f53a1501",
      "to": "0x03efecd0a281b209af3d9602f2f1c3d4ba1080a6",
      "contractAddress": null
    }
  ],
  "libraries": [],
  "pending": [],
  "returns": {},
  "timestamp": 1759365577881,
  "chain": 11155111,
  "commit": null
}