{
  "transactions": [
    {
      "hash": "0xdd7793e03b99a28e5b3fb188c91b57974d16a00848b1d83f9444f5c4592c72fd",
      "transactionType": "CALL",
      "contractName": null,
      "contractAddress": "0x03efecd0a281b209af3d9602f2f1c3d4ba1080a6",
      "function": "delegate(address)",
      "arguments": [
        "0xEeaD1C9a07cbDcB51d6C658672A9BCc3c742a47D"
      ],
      "transaction": {
        "from": "0x3a5525d06aee6da10b384218c7f02006f53a1501",
        "to": "0x03efecd0a281b209af3d9602f2f1c3d4ba1080a6",
        "gas": "0x27bec",
        "value": "0x0",
        "input": "0x5c19a95c000000000000000000000000eead1c9a07cbdcb51d6c658672a9bcc3c742a47d",
        "nonce": "0x36",
        "chainId": "0xaa36a7"
      },
      "additionalContracts": [],
      "isFixedGasLimit": false
    }
  ],
  "receipts": [
    {
      "status": "0x1",
      "cumulativeGasUsed": "0x8e02c7",
      "logs": [
        {
          "address": "0x03efecd0a281b209af3d9602f2f1c3d4ba1080a6",
          "topics": [
            "0x3134e8a2e6d97e929a7e54011ea5485d7d196dd5f0ba4d4ef95803e8e3fc257f",
            "0x0000000000000000000000003a5525d06aee6da10b384218c7f02006f53a1501",
            "0x0000000000000000000000001362be80c17ff6d403d484503593e32dae3ee433",
            "0x000000000000000000000000eead1c9a07cbdcb51d6c658672a9bcc3c742a47d"
          ],
          "data": "0x",
          "blockHash": "0x2bbb6f095177febc02641a538e239c9bfe90367d42004a13fcea3232814cb1f3",
          "blockNumber": "0x8e4324",
          "blockTimestamp": "0x68ddc9f8",
          "transactionHash": "0xdd7793e03b99a28e5b3fb188c91b57974d16a00848b1d83f9444f5c4592c72fd",
          "transactionIndex": "0x50",
          "logIndex": "0x59",
          "removed": false
        },
        {
          "address": "0x03efecd0a281b209af3d9602f2f1c3d4ba1080a6",
          "topics": [
            "0xdec2bacdd2f05b59de34da9b523dff8be42e5e38e818c82fdb0bae774387a724",
            "0x0000000000000000000000001362be80c17ff6d403d484503593e32dae3ee433"
          ],
          "data": "0x00000000000000000000000000000000000000000000d3c21bcecceda10000000000000000000000000000000000000000000000000000000000000000000000",
          "blockHash": "0x2bbb6f095177febc02641a538e239c9bfe90367d42004a13fcea3232814cb1f3",
          "blockNumber": "0x8e4324",
          "blockTimestamp": "0x68ddc9f8",
          "transactionHash": "0xdd7793e03b99a28e5b3fb188c91b57974d16a00848b1d83f9444f5c4592c72fd",
          "transactionIndex": "0x50",
          "logIndex": "0x5a",
          "removed": false
        },
        {
          "address": "0x03efecd0a281b209af3d9602f2f1c3d4ba1080a6",
          "topics": [
            "0xdec2bacdd2f05b59de34da9b523dff8be42e5e38e818c82fdb0bae774387a724",
            "0x000000000000000000000000eead1c9a07cbdcb51d6c658672a9bcc3c742a47d"
          ],
          "data": "0x000000000000000000000000000000000000000000000000000000000000000000000000000000000000000000000000000000000000d3c21bcecceda1000000",
          "blockHash": "0x2bbb6f095177febc02641a538e239c9bfe90367d42004a13fcea3232814cb1f3",
          "blockNumber": "0x8e4324",
          "blockTimestamp": "0x68ddc9f8",
          "transactionHash": "0xdd7793e03b99a28e5b3fb188c91b57974d16a00848b1d83f9444f5c4592c72fd",
          "transactionIndex": "0x50",
          "logIndex": "0x5b",
          "removed": false
        }
      ],
      "logsBloom": "0x00000000000000000000000000000000000020000000000000000000000000000000000000000200000010000000004000020000000000000000000000000000000000000000000000000000800000000000000000000000000000000000000000000000080000000040040000000000000000000000000000000000010000000000000000000000000000000000000000000000000000000000000000000000040000000000000000000000000000000000200000000000000000000000000000000000000000000000000000080000000000000000000000000000000000000000000000000000000000120000000000000000100000000040000000000000",
      "type": "0x2",
      "transactionHash": "0xdd7793e03b99a28e5b3fb188c91b57974d16a00848b1d83f9444f5c4592c72fd",
      "transactionIndex": "0x50",
      "blockHash": "0x2bbb6f095177febc02641a538e239c9bfe90367d42004a13fcea3232814cb1f3",
      "blockNumber": "0x8e4324",
      "gasUsed": "0x1b2d2",
      "effectiveGasPrice": "0xf425c",
      "from": "0x3a5525d06aee6da10b384218c7f02006f53a1501",
      "to": "0x03efecd0a281b209af3d9602f2f1c3d4ba1080a6",
      "contractAddress": null
    }
  ],
  "libraries": [],
  "pending": [],
  "returns": {},
  "timestamp": 1759365625652,
  "chain": 11155111,
  "commit": null
}